S017000049525F544845524D4F4752415048592E7372656379
S11300000C942A000C9447000C9447000C9447006D
S11300100C9447000C9447000C9447000C94470040
S11300200C9447000C9447000C9447000C94470030
S11300300C9447000C9447000C9447000C94470020
S11300400C9447000C9447000C9447000C94470010
S11300500C94470011241FBECFE5D8E0DEBFCDBF0E
S113006010E0A0E6B0E0E2EBF9E002C005900D92EA
S1130070A43AB107D9F720E0A4EAB0E001C01D9288
S1130080AD3BB207E1F70E9471010C94D7040C94C4
S1130090000084EA86BF06B607FEFDCF81B1887FE3
S11300A08830E1F7089584EA86BF06B607FEFDCFDF
S11300B081B1887F8031E1F7089583B984E886BFF0
S11300C006B607FEFDCF81B1887F8831E1F7089538
S11300D083B984E886BF06B607FEFDCF81B1887F69
S11300E08034E1F7089583B984E886BF06B607FE35
S11300F0FDCF81B1887F8832E1F70895882321F00C
S113010086B7806486BF03C086B78F7B86BF86B7F9
S1130110846086BF86B7806886BF06B607FEFDCFBB
S113012081B1887F8035E1F783B18093A40008957D
S1130130882321F086B7806486BF03C086B78F7B8F
S113014086BF86B7846086BF86B7806886BF06B6DA
S113015007FEFDCF81B1887F8835E1F783B18093B5
S1130160A400089584E986BF06B604FCFDCF089573
S1130170FF920F931F93CF93DF93EC019C01329571
S113018022952F7023273F702327A7E4B3E00E9412
S1130190CB04969587959695879596958795182F70
S11301A0105D812F0E94CC029E01369527953695CD
S11301B0279536952795A5ECB0E20E94CB04AC01B7
S11301C0529542954F7045275F7045279A01ADECD3
S11301D0BCEC0E94CB049C01369527953695279557
S11301E036952795C901880F991F220F331F220FB7
S11301F0331F220F331F280F391F421B530B042FA9
S1130200005D802F0E94CC029E013695279536957D
S11302102795ABE7B4E10E94CB04AC015695479512
S11302209A01ADECBCEC0E94CB049C013695279559
S11302303695279536952795C901880F991F220F62
S1130240331F220F331F220F331F280F391F421B66
S1130250530B0F2EF0E3FF2EF02DF40E8F2D0E9482
S1130260CC028EE20E94CC029E01ADECBCEC0E945A
S1130270CB04AC01569547955695479556954795A9
S11302809A010E94CB0496958795969587959695A5
S11302908795BC01660F771F9C01220F331F220F25
S11302A0331F220F331F260F371F421B530BC42F3C
S11302B0C05D8C2F0E94CC02812F0E944B02802FA4
S11302C00E944B028F2D0E944B028EE20E944B0231
S11302D08C2F0E944B02DF91CF911F910F91FF90C1
S11302E008958FEF87BB8ABB80E090E0A8E4B2E476
S11302F08093A7009093A800A093A900B093AA00AC
S11303000E943E020E94C2028AE20E94660267E0E4
S113031084EB0E94690280E690E00E94D2028EE79C
S113032090E00E9457022FEF8DE399E42150804022
S11303309040E1F700C0000085EB0E9492026093B8
S1130340B3007093B4008093B5009093B6002091ED
S1130350A7003091A8004091A9005091AA000E94E2
S11303604603062F172FD82FC92F862F912FAD2F75
S1130370BC2F8093AB009093AC00A093AD00B093DE
S1130380AE0023E333E948E853E4602F712F8D2F47
S11303909C2F0E94E102E62FF72F462F572F682F3C
S11303A0792F4093AF005093B0006093B1007093E5
S11303B0B20020E030E048EC52E46E2F7F2F0E9420
S11303C068040E94AE037093B8006093B70020E005
S11303D030E048EC52E4602F712F8D2F9C2F0E9447
S11303E068040E94AE037093A6006093A5008FE892
S11303F090E00E94D20280EC0E9432028091B70009
S11304009091B8000E94B80088EF0E94CC0283E467
S11304100E94CC0283E40E944B028DE990E00E948A
S1130420D2028DE990E00E9457028091A50090913C
S1130430A6000E94B80088EF0E94CC028BE40E94C0
S1130440CC028BE40E944B0281EA90E00E94D2022B
S11304502FEF83ED90E3215080409040E1F700C0FE
S113046000006ACF88BBDD98DE98DF9A89EF90E0C0
S11304700197F1F700C00000DF98089588E30E9417
S113048032028EE00E94320286E00E94320280E84C
S11304900E943202089588BBDD9ADE98DF9A89EFC4
S11304A090E00197F1F700C00000DF980895CF9322
S11304B0DF93EC018881882331F021960E944B025E
S11304C089918111FBCFDF91CF91089580B911B843
S11304D00895CF93DF93D82FC62F0E94490089EF48
S11304E090E00197F1F700C000008D2F0E945D009D
S11304F089EF90E00197F1F700C000008C2F0E9473
S1130500730089EF90E00197F1F700C000000E94AA
S1130510B20089EF90E00197F1F700C00000DF918D
S1130520CF910895CF93DF930E94490084EB0E94FA
S11305305D0087E00E9473000E94530085EB0E94D7
S1130540680081E00E947E00C82F81E00E947E0046
S1130550D82F80E00E9498000E94B20089EF90E0BA
S11305600197F1F700C000007D2F7F7760E06C0FEA
S1130570711D882777FD8095982F0E94DC03DF91F9
S1130580CF9108958AB188618AB980B5866880BDA3
S113059010BC83E389B908955D9BFECF8CB980E0DC
S11305A090E00895CF93DF93EC018881882331F0A4
S11305B021960E94CC0289918111FBCFDF91CF91CA
S11305C008955058BB27AA270ED048C139D130F01E
S11305D03ED120F031F49F3F11F41EF42EC10EF4ED
S11305E0E095E7FB24C1E92F4AD180F3BA176207EB
S11305F073078407950718F071F49EF562C10EF431
S1130600E0950B2EBA2FA02D0B01B90190010C011E
S1130610CA01A0011124FF27591B99F0593F50F436
S1130620503E68F11A16F040A22F232F342F44278E
S1130630585FF3CF469537952795A795F040539586
S1130640C9F77EF41F16BA0B620B730B840BBAF056
S11306509150A1F0FF0FBB1F661F771F881FC2F7C1
S11306600EC0BA0F621F731F841F48F487957795D5
S11306706795B795F7959E3F08F0B3CF9395880F8C
S113068008F09927EE0F9795879508950CD0E6C04A
S1130690DED040F0D5D030F021F45F3F19F0C7C070
S11306A0511110C1CAC0EBD098F39923C9F3552353
S11306B0B1F3951B550BBB27AA2762177307840751
S11306C038F09F5F5F4F220F331F441FAA1FA9F307
S11306D033D00E2E3AF0E0E830D091505040E695F9
S11306E0001CCAF729D0FE2F27D0660F771F881F5A
S11306F0BB1F261737074807AB07B0E809F0BB0B49
S1130700802DBF01FF2793585F4F2AF09E3F51056C
S113071068F08DC0D7C05F3FECF3983EDCF386955C
S113072077956795B795F7959F5FC9F7880F911DE2
S11307309695879597F90895E1E0660F771F881FCE
S1130740BB1F621773078407BA0720F0621B730B81
S1130750840BBA0BEE1F88F7E095089598D088F0C3
S11307609F5790F0B92F9927B751A0F0D1F0660F99
S1130770771F881F991F1AF0BA95C9F712C0B130B4
S113078081F09FD0B1E008959CC0672F782F88270F
S1130790B85F39F0B93FCCF3869577956795B395F3
S11307A0D9F73EF490958095709561957F4F8F4F62
S11307B09F4F0895E89409C097FB3EF49095809567
S11307C0709561957F4F8F4F9F4F9923A9F0F92F13
S11307D096E9BB279395F695879577956795B79591
S11307E0F111F8CFFAF4BB0F11F460FF1BC06F5F77
S11307F07F4F8F4F9F4F16C0882311F096E911C089
S1130800772321F09EE8872F762F05C0662371F0A9
S113081096E8862F70E060E02AF09A95660F771FBD
S1130820881FDAF7880F9695879597F9089597F9B1
S11308309F6780E870E060E008959FEF80EC089582
S113084000240A94161617061806090608950024AB
S11308500A9412161306140605060895092E039425
S1130860000C11F4882352F0BB0F40F4BF2B11F499
S113087060FF04C06F5F7F4F8F4F9F4F089557FDF8
S11308809058440F551F59F05F3F71F04795880FFA
S113089097FB991F61F09F3F79F087950895121691
S11308A013061406551FF2CF4695F1DF08C016163D
S11308B017061806991FF1CF8695710561050894EE
S11308C00895E894BB2766277727CB0197F9089505
S11308D00BD0C4CFB5DF28F0BADF18F0952309F0A8
S11308E0A6CFABCF1124EECFCADFA0F3959FD1F3EF
S11308F0950F50E0551F629FF001729FBB27F00DCA
S1130900B11D639FAA27F00DB11DAA1F649F66271E
S1130910B00DA11D661F829F2227B00DA11D621F6D
S1130920739FB00DA11D621F839FA00D611D221F27
S1130930749F3327A00D611D231F849F600D211D0B
S1130940822F762F6A2F11249F5750408AF0E1F0AE
S113095088234AF0EE0FFF1FBB1F661F771F881FF7
S113096091505040A9F79E3F510570F060CFAACF37
S11309705F3FECF3983EDCF3869577956795B795E2
S1130980F795E7959F5FC1F7FE2B880F911D96950C
S1130990879597F90895A29FB001B39FC001A39FC3
S11309A001D0B29F700D811D1124911D0895F894FA
S10509B0FFCF73
S11309B2495220544845524D4F47524150485920BC
S11309C254657374696E673E3E3E200D0A00202012
S11309D22054656D706572617475726520200054CF
S11309E2656D70657261747572653A2000207C20B1
S10709F2000D0000F0
S9030000FC
